:020000000D29C8
:10000800FF00030E8301AE000A08AD008A017008E4
:10001800A7007108A6007208A5007308A400740858
:10002800A3007B08A2007C08A1007D08A0000408AA
:10003800AC002A08A8002B08A900BD30AA0001308E
:10004800AB00A03084003630F00001218316011780
:1000580002308500831285108B1CDC288B108312DC
:1000680006183A288B1005100511DC2885183F283A
:100078008316D401D5018312851CDB2880308316B2
:100088005506F00080307002031D4C2803305402DE
:100098000318DB288312861C5428061F54285A2864
:1000A800861C5928861E59285A28962822308600E8
:1000B800051405111630F3000030F4008030740682
:1000C800F00080307002031D6B281930730203188A
:1000D8009228851C73288316D40A0319D50A730835
:1000E800F0007408F100F00DF10D70107008A03EDA
:1000F80084000008831287000B30FB002630FC00C8
:100108005D30FD00FD0B8628FC0B8628FB0B86283E
:1001180000000000F30A0319F40A62281830860068
:1001280005153328861D9B28061E9B28A128061D19
:10013800A028061EA028A128DB2814308600051553
:1001480005101630F3000030F40080307406F0001B
:1001580080307002031DB228193073020318D728A3
:100168008316D40A0319D50A7308F0007408F1003D
:10017800F00DF10D70107008A03E84000008831285
:1001880087000B30FB002630FC005D30FD00FD0BC6
:10019800CB28FC0BCB28FB0BCB2800000000F30A74
:1001A8000319F40AA9284230860005143328332895
:1001B80083122808AA002908AB002708F00026089F
:1001C800F1002508F2002408F3002308F4002208AF
:1001D800FB002108FC002008FD002C0884002D08E5
:0C01E8008A002E0E8300FF0E7F0E09001F
:0E01F400831203132B088A002A0882000800D9
:10020200FA208A110A128000840AAA0A0319AB0A88
:08021200F003031D012908009F
:10021A00F33083120313AA000130AB002F3084009D
:10022A003430F0000121073083169F000B160117A6
:10023A0002308500860187018312870186018501C4
:10024A00423086000230F3000030F4008030740639
:10025A00F00080307002031D34291930730203182C
:10026A007029061C48298B148B17861C4329061FE4
:10027A0043290230F3000030F40025290A30F30044
:10028A000030F400702900307406031D4E29163020
:10029A007306031D5229223086007308F000740881
:1002AA00F100F00DF10D701070082F3E8400000867
:1002BA0087000B30FB002630FC005D30FD00FD0B93
:1002CA006429FC0B6429FB0B642900000000F30A73
:1002DA000319F40A2B29183086000A30F30000307B
:1002EA00F40080307406F00080307002031D7F290C
:1002FA00193073020318BB29061C93298B148B1718
:10030A00861C8E29061F8E290230F3000030F40065
:10031A0025290A30F3000030F400722900307406EF
:10032A00031D992916307306031D9D291430860072
:10033A007308F0007408F100F00DF10D70107008E8
:10034A002F3E8400000887000B30FB002630FC009B
:10035A005D30FD00FD0BAF29FC0BAF29FB0BAF296C
:10036A0000000000F30A0319F40A76292529BC299A
:10037A002534003424340034233400342234003445
:10038A002134003420340034193400341834003451
:10039A00173400341634003415340034143400345D
:1003AA00133400341234003411340034103400345D
:1003BA000934003408340034073400340634003475
:1003CA000534003404340034033400340234003475
:0803DA0001340034003400344A
:0403E20000340034AF
:1003E60025340034243400342334003422340034D9
:1003F60021340034203400341934003418340034E5
:1004060017340034163400341534003414340034F0
:1004160013340034123400341134003410340034F0
:100426000934003408340034073400340634003408
:100436000534003404340034033400340234003408
:080446000134003400340034DD
:02400E004A2F37
:00000001FF
