:020000000B29CA
:10000800FF00030E8301AE000A08AD008A017008E4
:10001800A7007108A6007208A5007308A400740858
:10002800A3007B08A2007C08A1007D08A0000408AA
:10003800AC002A08A8002B08A900B930AA00013092
:10004800AB00A03084003630F000FF208316011783
:1000580002308500831285108B1CDA288B108312DE
:1000680006183A288B1005100511DA2885183F283C
:100078008316D401D5018312851CD92880308316B4
:100088005506F00080307002031D4C2803305402DE
:100098000318D9288312861C5428061F54285A2866
:1000A800861C5928861E59285A28952822308600E9
:1000B800051405111630F3000030F4008030740682
:1000C800F00080307002031D6B281A307302031889
:1000D8009128851C73288316D40A0319D50A730836
:1000E800F0007408F100F00DF10D70107008A03EDA
:1000F80084000008831287000730FB001730FC00DB
:100108006A30FD00FD0B8628FC0B8628FB0B862831
:100118000000F30A0319F40A62281830860005154E
:100128003328861D9A28061E9A28A028061D9F286F
:10013800061E9F28A028D92814308600051505100A
:100148001630F3000030F40080307406F000803080
:100158007002031DB1281A3073020318D5288316BC
:10016800D40A0319D50A7308F0007408F100F00DD9
:10017800F10D70107008A03E8400000883128700FB
:100188000730FB001730FC006A30FD00FD0BCA2861
:10019800FC0BCA28FB0BCA280000F30A0319F40A4F
:1001A800A8284230860005143328332883122808EB
:1001B800AA002908AB002708F0002608F100250846
:1001C800F2002408F3002308F4002208FB002108A9
:1001D800FC002008FD002C0884002D088A002E0E43
:0801E8008300FF0E7F0E0900E9
:0E01F000831203132B088A002A0882000800DD
:1001FE00F8208A110A128000840AAA0A0319AB0A8F
:08020E00F003031DFF280800A6
:10021600EF3083120313AA000130AB002F308400A5
:100226003430F000FF20073083169F000B160117AD
:1002360002308500860187018312870186018501C8
:10024600423086000230F3000030F400803074063D
:10025600F00080307002031D32291A307302031831
:100266006D29061C46298B148B17861C4129061FEF
:1002760041290230F3000030F40023290A30F3004C
:100286000030F4006D2900307406031D4C29163029
:100296007306031D5029223086007308F000740887
:1002A600F100F00DF10D701070082F3E840000086B
:1002B60087000730FB001730FC006A30FD00FD0B9D
:1002C6006229FC0B6229FB0B62290000F30A031961
:1002D600F40A2929183086000A30F3000030F400A9
:1002E60080307406F00080307002031D7C291A30BD
:1002F60073020318B729061C90298B148B17861CCA
:100306008B29061F8B290230F3000030F4002329C5
:100316000A30F3000030F4006F2900307406031D24
:10032600962916307306031D9A2914308600730821
:10033600F0007408F100F00DF10D701070082F3EFA
:100346008400000887000730FB001730FC006A3085
:10035600FD00FD0BAC29FC0BAC29FB0BAC29000006
:0C036600F30A0319F40A73292329B829AB
:10037200253400342434003423340034223400344D
:100382002134003420340034193400341834003459
:100392001734003416340034153400341434003465
:1003A2001334003412340034113400341034003465
:1003B200093400340834003407340034063400347D
:1003C200053400340434003403340034023400347D
:0803D200013400340034003452
:0403DA0000340034B7
:1003DE0025340034243400342334003422340034E1
:1003EE0021340034203400341934003418340034ED
:1003FE0017340034163400341534003414340034F9
:10040E0013340034123400341134003410340034F8
:10041E000934003408340034073400340634003410
:10042E000534003404340034033400340234003410
:08043E000134003400340034E5
:02400E004A2F37
:00000001FF
